{
  "contractName": "Radio",
  "abi": [
    {
      "inputs": [],
      "stateMutability": "nonpayable",
      "type": "constructor"
    },
    {
      "anonymous": false,
      "inputs": [
        {
          "indexed": false,
          "internalType": "address",
          "name": "nftContract",
          "type": "address"
        },
        {
          "indexed": false,
          "internalType": "uint256",
          "name": "tokenId",
          "type": "uint256"
        },
        {
          "indexed": false,
          "internalType": "address",
          "name": "seller",
          "type": "address"
        },
        {
          "indexed": false,
          "internalType": "address",
          "name": "owner",
          "type": "address"
        }
      ],
      "name": "NFTListed",
      "type": "event"
    },
    {
      "anonymous": false,
      "inputs": [
        {
          "indexed": false,
          "internalType": "address",
          "name": "nftContract",
          "type": "address"
        },
        {
          "indexed": false,
          "internalType": "uint256",
          "name": "tokenId",
          "type": "uint256"
        },
        {
          "indexed": false,
          "internalType": "address",
          "name": "seller",
          "type": "address"
        },
        {
          "indexed": false,
          "internalType": "address",
          "name": "owner",
          "type": "address"
        }
      ],
      "name": "NFTSold",
      "type": "event"
    },
    {
      "inputs": [
        {
          "internalType": "address",
          "name": "_nftContract",
          "type": "address"
        },
        {
          "internalType": "uint256",
          "name": "_tokenId",
          "type": "uint256"
        }
      ],
      "name": "listNft",
      "outputs": [],
      "stateMutability": "payable",
      "type": "function",
      "payable": true
    },
    {
      "inputs": [],
      "name": "getListedNfts",
      "outputs": [
        {
          "components": [
            {
              "internalType": "address",
              "name": "nftContract",
              "type": "address"
            },
            {
              "internalType": "uint256",
              "name": "tokenId",
              "type": "uint256"
            },
            {
              "internalType": "address payable",
              "name": "seller",
              "type": "address"
            },
            {
              "internalType": "address payable",
              "name": "owner",
              "type": "address"
            },
            {
              "internalType": "bool",
              "name": "listed",
              "type": "bool"
            }
          ],
          "internalType": "struct Radio.NFT[]",
          "name": "",
          "type": "tuple[]"
        }
      ],
      "stateMutability": "view",
      "type": "function",
      "constant": true
    },
    {
      "inputs": [],
      "name": "getMyNfts",
      "outputs": [
        {
          "components": [
            {
              "internalType": "address",
              "name": "nftContract",
              "type": "address"
            },
            {
              "internalType": "uint256",
              "name": "tokenId",
              "type": "uint256"
            },
            {
              "internalType": "address payable",
              "name": "seller",
              "type": "address"
            },
            {
              "internalType": "address payable",
              "name": "owner",
              "type": "address"
            },
            {
              "internalType": "bool",
              "name": "listed",
              "type": "bool"
            }
          ],
          "internalType": "struct Radio.NFT[]",
          "name": "",
          "type": "tuple[]"
        }
      ],
      "stateMutability": "view",
      "type": "function",
      "constant": true
    },
    {
      "inputs": [],
      "name": "getMyListedNfts",
      "outputs": [
        {
          "components": [
            {
              "internalType": "address",
              "name": "nftContract",
              "type": "address"
            },
            {
              "internalType": "uint256",
              "name": "tokenId",
              "type": "uint256"
            },
            {
              "internalType": "address payable",
              "name": "seller",
              "type": "address"
            },
            {
              "internalType": "address payable",
              "name": "owner",
              "type": "address"
            },
            {
              "internalType": "bool",
              "name": "listed",
              "type": "bool"
            }
          ],
          "internalType": "struct Radio.NFT[]",
          "name": "",
          "type": "tuple[]"
        }
      ],
      "stateMutability": "view",
      "type": "function",
      "constant": true
    }
  ],
  "bytecode": "0x608060405234801561001057600080fd5b50600160008190555073944afe2af5c3d5637f1f3cdb4a130f272de73420600360006101000a81548173ffffffffffffffffffffffffffffffffffffffff021916908373ffffffffffffffffffffffffffffffffffffffff1602179055506112348061007d6000396000f3fe60806040526004361061003f5760003560e01c8063047b07bf14610044578063192027eb1461006f5780631f4cc4db1461008b5780638d6cb3fb146100b6575b600080fd5b34801561005057600080fd5b506100596100e1565b6040516100669190610eeb565b60405180910390f35b61008960048036038101906100849190610f6a565b61040a565b005b34801561009757600080fd5b506100a0610655565b6040516100ad9190610eeb565b60405180910390f35b3480156100c257600080fd5b506100cb6109f0565b6040516100d89190610eeb565b60405180910390f35b606060006100ef6002610c4e565b90506000805b82811015610194573373ffffffffffffffffffffffffffffffffffffffff16600460006001846101259190610fd9565b815260200190815260200160002060030160009054906101000a900473ffffffffffffffffffffffffffffffffffffffff1673ffffffffffffffffffffffffffffffffffffffff160361018157818061017d9061100d565b9250505b808061018c9061100d565b9150506100f5565b5060008167ffffffffffffffff8111156101b1576101b0611055565b5b6040519080825280602002602001820160405280156101ea57816020015b6101d7610ccb565b8152602001906001900390816101cf5790505b5090506000805b848110156103ff573373ffffffffffffffffffffffffffffffffffffffff16600460006001846102219190610fd9565b815260200190815260200160002060030160009054906101000a900473ffffffffffffffffffffffffffffffffffffffff1673ffffffffffffffffffffffffffffffffffffffff16036103ec576004600060018361027f9190610fd9565b81526020019081526020016000206040518060a00160405290816000820160009054906101000a900473ffffffffffffffffffffffffffffffffffffffff1673ffffffffffffffffffffffffffffffffffffffff1673ffffffffffffffffffffffffffffffffffffffff168152602001600182015481526020016002820160009054906101000a900473ffffffffffffffffffffffffffffffffffffffff1673ffffffffffffffffffffffffffffffffffffffff1673ffffffffffffffffffffffffffffffffffffffff1681526020016003820160009054906101000a900473ffffffffffffffffffffffffffffffffffffffff1673ffffffffffffffffffffffffffffffffffffffff1673ffffffffffffffffffffffffffffffffffffffff1681526020016003820160149054906101000a900460ff1615151515815250508383815181106103d2576103d1611084565b5b602002602001018190525081806103e89061100d565b9250505b80806103f79061100d565b9150506101f1565b508194505050505090565b610412610c5c565b8173ffffffffffffffffffffffffffffffffffffffff166323b872dd3330846040518463ffffffff1660e01b815260040161044f939291906110d1565b600060405180830381600087803b15801561046957600080fd5b505af115801561047d573d6000803e3d6000fd5b5050505061048b6002610cab565b6040518060a001604052808373ffffffffffffffffffffffffffffffffffffffff1681526020018281526020013373ffffffffffffffffffffffffffffffffffffffff1681526020013073ffffffffffffffffffffffffffffffffffffffff168152602001600115158152506004600083815260200190815260200160002060008201518160000160006101000a81548173ffffffffffffffffffffffffffffffffffffffff021916908373ffffffffffffffffffffffffffffffffffffffff1602179055506020820151816001015560408201518160020160006101000a81548173ffffffffffffffffffffffffffffffffffffffff021916908373ffffffffffffffffffffffffffffffffffffffff16021790555060608201518160030160006101000a81548173ffffffffffffffffffffffffffffffffffffffff021916908373ffffffffffffffffffffffffffffffffffffffff16021790555060808201518160030160146101000a81548160ff0219169083151502179055509050507f232534bbd51d7cde87652214a8c8454ac134ea309ff79aed199c676bebca94b9828233306040516106419493929190611108565b60405180910390a1610651610cc1565b5050565b606060006106636002610c4e565b90506000805b82811015610741573373ffffffffffffffffffffffffffffffffffffffff16600460006001846106999190610fd9565b815260200190815260200160002060020160009054906101000a900473ffffffffffffffffffffffffffffffffffffffff1673ffffffffffffffffffffffffffffffffffffffff1614801561071a5750600460006001836106fa9190610fd9565b815260200190815260200160002060030160149054906101000a900460ff165b1561072e57818061072a9061100d565b9250505b80806107399061100d565b915050610669565b5060008167ffffffffffffffff81111561075e5761075d611055565b5b60405190808252806020026020018201604052801561079757816020015b610784610ccb565b81526020019060019003908161077c5790505b5090506000805b848110156109e5573373ffffffffffffffffffffffffffffffffffffffff16600460006001846107ce9190610fd9565b815260200190815260200160002060020160009054906101000a900473ffffffffffffffffffffffffffffffffffffffff1673ffffffffffffffffffffffffffffffffffffffff1614801561084f57506004600060018361082f9190610fd9565b815260200190815260200160002060030160149054906101000a900460ff165b156109d257600460006001836108659190610fd9565b81526020019081526020016000206040518060a00160405290816000820160009054906101000a900473ffffffffffffffffffffffffffffffffffffffff1673ffffffffffffffffffffffffffffffffffffffff1673ffffffffffffffffffffffffffffffffffffffff168152602001600182015481526020016002820160009054906101000a900473ffffffffffffffffffffffffffffffffffffffff1673ffffffffffffffffffffffffffffffffffffffff1673ffffffffffffffffffffffffffffffffffffffff1681526020016003820160009054906101000a900473ffffffffffffffffffffffffffffffffffffffff1673ffffffffffffffffffffffffffffffffffffffff1673ffffffffffffffffffffffffffffffffffffffff1681526020016003820160149054906101000a900460ff1615151515815250508383815181106109b8576109b7611084565b5b602002602001018190525081806109ce9061100d565b9250505b80806109dd9061100d565b91505061079e565b508194505050505090565b606060006109fe6002610c4e565b90506000610a0c6001610c4e565b82610a17919061114d565b905060008167ffffffffffffffff811115610a3557610a34611055565b5b604051908082528060200260200182016040528015610a6e57816020015b610a5b610ccb565b815260200190600190039081610a535790505b5090506000805b84811015610c435760046000600183610a8e9190610fd9565b815260200190815260200160002060030160149054906101000a900460ff1615610c305760046000600183610ac39190610fd9565b81526020019081526020016000206040518060a00160405290816000820160009054906101000a900473ffffffffffffffffffffffffffffffffffffffff1673ffffffffffffffffffffffffffffffffffffffff1673ffffffffffffffffffffffffffffffffffffffff168152602001600182015481526020016002820160009054906101000a900473ffffffffffffffffffffffffffffffffffffffff1673ffffffffffffffffffffffffffffffffffffffff1673ffffffffffffffffffffffffffffffffffffffff1681526020016003820160009054906101000a900473ffffffffffffffffffffffffffffffffffffffff1673ffffffffffffffffffffffffffffffffffffffff1673ffffffffffffffffffffffffffffffffffffffff1681526020016003820160149054906101000a900460ff161515151581525050838381518110610c1657610c15611084565b5b60200260200101819052508180610c2c9061100d565b9250505b8080610c3b9061100d565b915050610a75565b508194505050505090565b600081600001549050919050565b600260005403610ca1576040517f08c379a0000000000000000000000000000000000000000000000000000000008152600401610c98906111de565b60405180910390fd5b6002600081905550565b6001816000016000828254019250508190555050565b6001600081905550565b6040518060a00160405280600073ffffffffffffffffffffffffffffffffffffffff16815260200160008152602001600073ffffffffffffffffffffffffffffffffffffffff168152602001600073ffffffffffffffffffffffffffffffffffffffff1681526020016000151581525090565b600081519050919050565b600082825260208201905092915050565b6000819050602082019050919050565b600073ffffffffffffffffffffffffffffffffffffffff82169050919050565b6000610d9582610d6a565b9050919050565b610da581610d8a565b82525050565b6000819050919050565b610dbe81610dab565b82525050565b6000610dcf82610d6a565b9050919050565b610ddf81610dc4565b82525050565b60008115159050919050565b610dfa81610de5565b82525050565b60a082016000820151610e166000850182610d9c565b506020820151610e296020850182610db5565b506040820151610e3c6040850182610dd6565b506060820151610e4f6060850182610dd6565b506080820151610e626080850182610df1565b50505050565b6000610e748383610e00565b60a08301905092915050565b6000602082019050919050565b6000610e9882610d3e565b610ea28185610d49565b9350610ead83610d5a565b8060005b83811015610ede578151610ec58882610e68565b9750610ed083610e80565b925050600181019050610eb1565b5085935050505092915050565b60006020820190508181036000830152610f058184610e8d565b905092915050565b600080fd5b610f1b81610d8a565b8114610f2657600080fd5b50565b600081359050610f3881610f12565b92915050565b610f4781610dab565b8114610f5257600080fd5b50565b600081359050610f6481610f3e565b92915050565b60008060408385031215610f8157610f80610f0d565b5b6000610f8f85828601610f29565b9250506020610fa085828601610f55565b9150509250929050565b7f4e487b7100000000000000000000000000000000000000000000000000000000600052601160045260246000fd5b6000610fe482610dab565b9150610fef83610dab565b925082820190508082111561100757611006610faa565b5b92915050565b600061101882610dab565b91507fffffffffffffffffffffffffffffffffffffffffffffffffffffffffffffffff820361104a57611049610faa565b5b600182019050919050565b7f4e487b7100000000000000000000000000000000000000000000000000000000600052604160045260246000fd5b7f4e487b7100000000000000000000000000000000000000000000000000000000600052603260045260246000fd5b6110bc81610d8a565b82525050565b6110cb81610dab565b82525050565b60006060820190506110e660008301866110b3565b6110f360208301856110b3565b61110060408301846110c2565b949350505050565b600060808201905061111d60008301876110b3565b61112a60208301866110c2565b61113760408301856110b3565b61114460608301846110b3565b95945050505050565b600061115882610dab565b915061116383610dab565b925082820390508181111561117b5761117a610faa565b5b92915050565b600082825260208201905092915050565b7f5265656e7472616e637947756172643a207265656e7472616e742063616c6c00600082015250565b60006111c8601f83611181565b91506111d382611192565b602082019050919050565b600060208201905081810360008301526111f7816111bb565b905091905056fea26469706673582212209734c88dab141f12721ecbce23d34137d2477c26a0b39ca5a96c4fc7fbe34fe664736f6c63430008110033",
  "immutableReferences": {},
  "source": "// SPDX-License-Identifier: MIT\r\npragma solidity ^0.8.13;\r\n\r\nimport \"@openzeppelin/contracts/utils/Counters.sol\";\r\nimport \"@openzeppelin/contracts/token/ERC721/ERC721.sol\";\r\nimport \"@openzeppelin/contracts/security/ReentrancyGuard.sol\";\r\n\r\ncontract Radio is ReentrancyGuard {\r\n    using Counters for Counters.Counter;\r\n    Counters.Counter private _nftsSold;\r\n    Counters.Counter private _nftCount;\r\n\r\n    address payable private _marketOwner;\r\n    mapping(uint256 => NFT) private _idToNFT;\r\n    struct NFT {\r\n        address nftContract;\r\n        uint256 tokenId;\r\n        address payable seller;\r\n        address payable owner;\r\n        bool listed;\r\n    }\r\n    event NFTListed(\r\n        address nftContract,\r\n        uint256 tokenId,\r\n        address seller,\r\n        address owner\r\n    );\r\n    event NFTSold(\r\n        address nftContract,\r\n        uint256 tokenId,\r\n        address seller,\r\n        address owner\r\n    );\r\n\r\n    constructor() {\r\n        // set marketOwner to \"0x944aFe2AF5C3d5637F1F3cDB4a130f272DE73420\"\r\n        _marketOwner = payable(0x944aFe2AF5C3d5637F1F3cDB4a130f272DE73420);\r\n    }\r\n\r\n    // List the NFT on the marketplace\r\n    function listNft(address _nftContract, uint256 _tokenId)\r\n        public\r\n        payable\r\n        nonReentrant\r\n    {\r\n        IERC721(_nftContract).transferFrom(msg.sender, address(this), _tokenId);\r\n\r\n        _nftCount.increment();\r\n\r\n        _idToNFT[_tokenId] = NFT(\r\n            _nftContract,\r\n            _tokenId,\r\n            payable(msg.sender),\r\n            payable(address(this)),\r\n            true\r\n        );\r\n\r\n        emit NFTListed(_nftContract, _tokenId, msg.sender, address(this));\r\n    }\r\n\r\n    function getListedNfts() public view returns (NFT[] memory) {\r\n        uint256 nftCount = _nftCount.current();\r\n        uint256 unsoldNftsCount = nftCount - _nftsSold.current();\r\n\r\n        NFT[] memory nfts = new NFT[](unsoldNftsCount);\r\n        uint256 nftsIndex = 0;\r\n        for (uint256 i = 0; i < nftCount; i++) {\r\n            if (_idToNFT[i + 1].listed) {\r\n                nfts[nftsIndex] = _idToNFT[i + 1];\r\n                nftsIndex++;\r\n            }\r\n        }\r\n        return nfts;\r\n    }\r\n\r\n    function getMyNfts() public view returns (NFT[] memory) {\r\n        uint256 nftCount = _nftCount.current();\r\n        uint256 myNftCount = 0;\r\n        for (uint256 i = 0; i < nftCount; i++) {\r\n            if (_idToNFT[i + 1].owner == msg.sender) {\r\n                myNftCount++;\r\n            }\r\n        }\r\n\r\n        NFT[] memory nfts = new NFT[](myNftCount);\r\n        uint256 nftsIndex = 0;\r\n        for (uint256 i = 0; i < nftCount; i++) {\r\n            if (_idToNFT[i + 1].owner == msg.sender) {\r\n                nfts[nftsIndex] = _idToNFT[i + 1];\r\n                nftsIndex++;\r\n            }\r\n        }\r\n        return nfts;\r\n    }\r\n\r\n    function getMyListedNfts() public view returns (NFT[] memory) {\r\n        uint256 nftCount = _nftCount.current();\r\n        uint256 myListedNftCount = 0;\r\n        for (uint256 i = 0; i < nftCount; i++) {\r\n            if (\r\n                _idToNFT[i + 1].seller == msg.sender && _idToNFT[i + 1].listed\r\n            ) {\r\n                myListedNftCount++;\r\n            }\r\n        }\r\n\r\n        NFT[] memory nfts = new NFT[](myListedNftCount);\r\n        uint256 nftsIndex = 0;\r\n        for (uint256 i = 0; i < nftCount; i++) {\r\n            if (\r\n                _idToNFT[i + 1].seller == msg.sender && _idToNFT[i + 1].listed\r\n            ) {\r\n                nfts[nftsIndex] = _idToNFT[i + 1];\r\n                nftsIndex++;\r\n            }\r\n        }\r\n        return nfts;\r\n    }\r\n}\r\n",
  "sourcePath": "C:\\Users\\chris\\lofichain\\lofichain\\smart-contracts\\contracts\\Radio.sol",
  "compiler": {
    "name": "solc",
    "version": "0.8.17+commit.8df45f5f.Emscripten.clang"
  },
  "schemaVersion": "3.4.11",
  "updatedAt": "2023-01-02T02:08:16.137Z",
  "networkType": "ethereum",
  "devdoc": {
    "kind": "dev",
    "methods": {},
    "version": 1
  },
  "userdoc": {
    "kind": "user",
    "methods": {},
    "version": 1
  }
}